{
  "_format": "hh3-artifact-1",
  "contractName": "DocumentRegistry",
  "sourceName": "contracts/DocumentRegistry.sol",
  "abi": [
    {
      "inputs": [
        {
          "internalType": "string",
          "name": "_fileHash",
          "type": "string"
        }
      ],
      "name": "getDocumentInfo",
      "outputs": [
        {
          "internalType": "bool",
          "name": "exists",
          "type": "bool"
        },
        {
          "internalType": "address",
          "name": "owner",
          "type": "address"
        },
        {
          "internalType": "uint256",
          "name": "timestamp",
          "type": "uint256"
        }
      ],
      "stateMutability": "view",
      "type": "function"
    },
    {
      "inputs": [
        {
          "internalType": "string",
          "name": "_fileHash",
          "type": "string"
        }
      ],
      "name": "registerDocument",
      "outputs": [],
      "stateMutability": "nonpayable",
      "type": "function"
    },
    {
      "inputs": [
        {
          "internalType": "string",
          "name": "_fileHash",
          "type": "string"
        }
      ],
      "name": "verifyDocument",
      "outputs": [
        {
          "internalType": "bool",
          "name": "",
          "type": "bool"
        }
      ],
      "stateMutability": "view",
      "type": "function"
    }
  ],
  "bytecode": "0x6080604052348015600e575f5ffd5b5061034d8061001c5f395ff3fe608060405234801561000f575f5ffd5b506004361061003f575f3560e01c806337ce06bd146100435780634847a47014610080578063beee5eb714610095575b5f5ffd5b61005661005136600461024e565b6100b8565b6040805193151584526001600160a01b039092166020840152908201526060015b60405180910390f35b61009361008e36600461024e565b61011c565b005b6100a86100a336600461024e565b610211565b6040519015158152602001610077565b5f5f5f5f5f856040516100cb9190610301565b9081526040805160209281900383018120606082018352805460ff811615158084526101009091046001600160a01b0316948301859052600190910154919092018190529097919650945092505050565b5f8160405161012b9190610301565b9081526040519081900360200190205460ff161561018f5760405162461bcd60e51b815260206004820152601a60248201527f446f63756d656e742064656a6120496e72656769737472617421000000000000604482015260640160405180910390fd5b6040805160608101825260018152336020820152428183015290515f906101b7908490610301565b908152604080516020928190038301902083518154938501516001600160a81b0319909416901515610100600160a81b031916176101006001600160a01b0390941693909302929092178255919091015160019091015550565b5f5f826040516102219190610301565b9081526040519081900360200190205460ff1692915050565b634e487b7160e01b5f52604160045260245ffd5b5f6020828403121561025e575f5ffd5b813567ffffffffffffffff811115610274575f5ffd5b8201601f81018413610284575f5ffd5b803567ffffffffffffffff81111561029e5761029e61023a565b604051601f8201601f19908116603f0116810167ffffffffffffffff811182821017156102cd576102cd61023a565b6040528181528282016020018610156102e4575f5ffd5b816020840160208301375f91810160200191909152949350505050565b5f82518060208501845e5f92019182525091905056fea264697066735822122064630d0902e547bd96374377d7d59431f568ae007c94b536eecd53fb74a250fe64736f6c634300081c0033",
  "linkReferences": {},
  "deployedLinkReferences": {},
  "immutableReferences": {},
  "inputSourceName": "project/contracts/DocumentRegistry.sol",
  "buildInfoId": "solc-0_8_28-536a4b82d2ef2a6883bb6d6d6f0f1d9993b8bfd4"
}