{
  "_format": "hh3-artifact-1",
  "contractName": "DocumentRegistry",
  "sourceName": "contracts/DocumentRegistry.sol",
  "abi": [
    {
      "inputs": [],
      "stateMutability": "nonpayable",
      "type": "constructor"
    },
    {
      "inputs": [],
      "name": "admin",
      "outputs": [
        {
          "internalType": "address",
          "name": "",
          "type": "address"
        }
      ],
      "stateMutability": "view",
      "type": "function"
    },
    {
      "inputs": [],
      "name": "getAdmin",
      "outputs": [
        {
          "internalType": "address",
          "name": "",
          "type": "address"
        }
      ],
      "stateMutability": "view",
      "type": "function"
    },
    {
      "inputs": [
        {
          "internalType": "string",
          "name": "_fileHash",
          "type": "string"
        }
      ],
      "name": "getDocumentInfo",
      "outputs": [
        {
          "internalType": "bool",
          "name": "exists",
          "type": "bool"
        },
        {
          "internalType": "address",
          "name": "owner",
          "type": "address"
        },
        {
          "internalType": "uint256",
          "name": "timestamp",
          "type": "uint256"
        }
      ],
      "stateMutability": "view",
      "type": "function"
    },
    {
      "inputs": [
        {
          "internalType": "string",
          "name": "_fileHash",
          "type": "string"
        }
      ],
      "name": "registerDocument",
      "outputs": [],
      "stateMutability": "nonpayable",
      "type": "function"
    },
    {
      "inputs": [
        {
          "internalType": "string",
          "name": "_fileHash",
          "type": "string"
        }
      ],
      "name": "verifyDocument",
      "outputs": [
        {
          "internalType": "bool",
          "name": "",
          "type": "bool"
        }
      ],
      "stateMutability": "view",
      "type": "function"
    }
  ],
  "bytecode": "0x6080604052348015600e575f5ffd5b505f80546001600160a01b0319163317905561039e8061002d5f395ff3fe608060405234801561000f575f5ffd5b5060043610610055575f3560e01c806337ce06bd146100595780634847a470146100965780636e9960c3146100ab578063beee5eb7146100cf578063f851a440146100f2575b5f5ffd5b61006c61006736600461029f565b610104565b6040805193151584526001600160a01b039092166020840152908201526060015b60405180910390f35b6100a96100a436600461029f565b610169565b005b5f546001600160a01b03165b6040516001600160a01b03909116815260200161008d565b6100e26100dd36600461029f565b610261565b604051901515815260200161008d565b5f546100b7906001600160a01b031681565b5f5f5f5f6001856040516101189190610352565b9081526040805160209281900383018120606082018352805460ff811615158084526101009091046001600160a01b0316948301859052600190910154919092018190529097919650945092505050565b6001816040516101799190610352565b9081526040519081900360200190205460ff16156101dd5760405162461bcd60e51b815260206004820152601a60248201527f446f63756d656e742064656a6120696e72656769737472617421000000000000604482015260640160405180910390fd5b60408051606081018252600180825233602083015242828401529151909190610207908490610352565b908152604080516020928190038301902083518154938501516001600160a81b0319909416901515610100600160a81b031916176101006001600160a01b0390941693909302929092178255919091015160019091015550565b5f6001826040516102729190610352565b9081526040519081900360200190205460ff1692915050565b634e487b7160e01b5f52604160045260245ffd5b5f602082840312156102af575f5ffd5b813567ffffffffffffffff8111156102c5575f5ffd5b8201601f810184136102d5575f5ffd5b803567ffffffffffffffff8111156102ef576102ef61028b565b604051601f8201601f19908116603f0116810167ffffffffffffffff8111828210171561031e5761031e61028b565b604052818152828201602001861015610335575f5ffd5b816020840160208301375f91810160200191909152949350505050565b5f82518060208501845e5f92019182525091905056fea2646970667358221220d8a64213c940d647e6cf36dfeb34a03462aefbffdaefbfaa294c0384148ffbe764736f6c634300081c0033",
  "linkReferences": {},
  "deployedLinkReferences": {},
  "immutableReferences": {},
  "inputSourceName": "project/contracts/DocumentRegistry.sol",
  "buildInfoId": "solc-0_8_28-54743a0678507ec4779a0c7fe4fe71d7d59e66fe"
}